{
  "_format": "hh-sol-artifact-1",
  "contractName": "Lottery",
  "sourceName": "contracts/Lottery.sol",
  "abi": [
    {
      "inputs": [],
      "stateMutability": "nonpayable",
      "type": "constructor"
    },
    {
      "inputs": [],
      "name": "enter",
      "outputs": [],
      "stateMutability": "payable",
      "type": "function"
    },
    {
      "inputs": [],
      "name": "getPlayers",
      "outputs": [
        {
          "internalType": "address payable[]",
          "name": "",
          "type": "address[]"
        }
      ],
      "stateMutability": "view",
      "type": "function"
    },
    {
      "inputs": [],
      "name": "manager",
      "outputs": [
        {
          "internalType": "address",
          "name": "",
          "type": "address"
        }
      ],
      "stateMutability": "view",
      "type": "function"
    },
    {
      "inputs": [],
      "name": "pickWinner",
      "outputs": [],
      "stateMutability": "nonpayable",
      "type": "function"
    },
    {
      "inputs": [
        {
          "internalType": "uint256",
          "name": "",
          "type": "uint256"
        }
      ],
      "name": "players",
      "outputs": [
        {
          "internalType": "address payable",
          "name": "",
          "type": "address"
        }
      ],
      "stateMutability": "view",
      "type": "function"
    }
  ],
  "bytecode": "0x608060405234801561001057600080fd5b50336000806101000a81548173ffffffffffffffffffffffffffffffffffffffff021916908373ffffffffffffffffffffffffffffffffffffffff160217905550610a8b806100606000396000f3fe60806040526004361061004a5760003560e01c8063481c6a751461004f5780635d495aea1461007a5780638b5b9ccc14610091578063e97dcb62146100bc578063f71d96cb146100c6575b600080fd5b34801561005b57600080fd5b50610064610103565b604051610071919061054b565b60405180910390f35b34801561008657600080fd5b5061008f610127565b005b34801561009d57600080fd5b506100a66102b2565b6040516100b39190610636565b60405180910390f35b6100c4610340565b005b3480156100d257600080fd5b506100ed60048036038101906100e89190610693565b6103ee565b6040516100fa91906106cf565b60405180910390f35b60008054906101000a900473ffffffffffffffffffffffffffffffffffffffff1681565b60008054906101000a900473ffffffffffffffffffffffffffffffffffffffff1673ffffffffffffffffffffffffffffffffffffffff163373ffffffffffffffffffffffffffffffffffffffff16146101b5576040517f08c379a00000000000000000000000000000000000000000000000000000000081526004016101ac9061076d565b60405180910390fd5b600180805490506101c461042d565b6101ce91906107bc565b815481106101df576101de6107ed565b5b9060005260206000200160009054906101000a900473ffffffffffffffffffffffffffffffffffffffff1673ffffffffffffffffffffffffffffffffffffffff166108fc479081150290604051600060405180830381858888f1935050505015801561024f573d6000803e3d6000fd5b50600067ffffffffffffffff81111561026b5761026a61081c565b5b6040519080825280602002602001820160405280156102995781602001602082028036833780820191505090505b50600190805190602001906102af929190610463565b50565b6060600180548060200260200160405190810160405280929190818152602001828054801561033657602002820191906000526020600020905b8160009054906101000a900473ffffffffffffffffffffffffffffffffffffffff1673ffffffffffffffffffffffffffffffffffffffff16815260200190600101908083116102ec575b5050505050905090565b662386f26fc100003411610389576040517f08c379a0000000000000000000000000000000000000000000000000000000008152600401610380906108bd565b60405180910390fd5b6001339080600181540180825580915050600190039060005260206000200160009091909190916101000a81548173ffffffffffffffffffffffffffffffffffffffff021916908373ffffffffffffffffffffffffffffffffffffffff160217905550565b600181815481106103fe57600080fd5b906000526020600020016000915054906101000a900473ffffffffffffffffffffffffffffffffffffffff1681565b60004442600160405160200161044593929190610a1c565b6040516020818303038152906040528051906020012060001c905090565b8280548282559060005260206000209081019282156104dc579160200282015b828111156104db5782518260006101000a81548173ffffffffffffffffffffffffffffffffffffffff021916908373ffffffffffffffffffffffffffffffffffffffff16021790555091602001919060010190610483565b5b5090506104e991906104ed565b5090565b5b808211156105065760008160009055506001016104ee565b5090565b600073ffffffffffffffffffffffffffffffffffffffff82169050919050565b60006105358261050a565b9050919050565b6105458161052a565b82525050565b6000602082019050610560600083018461053c565b92915050565b600081519050919050565b600082825260208201905092915050565b6000819050602082019050919050565b600061059d8261050a565b9050919050565b6105ad81610592565b82525050565b60006105bf83836105a4565b60208301905092915050565b6000602082019050919050565b60006105e382610566565b6105ed8185610571565b93506105f883610582565b8060005b8381101561062957815161061088826105b3565b975061061b836105cb565b9250506001810190506105fc565b5085935050505092915050565b6000602082019050818103600083015261065081846105d8565b905092915050565b600080fd5b6000819050919050565b6106708161065d565b811461067b57600080fd5b50565b60008135905061068d81610667565b92915050565b6000602082840312156106a9576106a8610658565b5b60006106b78482850161067e565b91505092915050565b6106c981610592565b82525050565b60006020820190506106e460008301846106c0565b92915050565b600082825260208201905092915050565b7f4f6e6c7920746865206d616e616765722063616e2063686f6f7365207468652060008201527f77696e6572000000000000000000000000000000000000000000000000000000602082015250565b60006107576025836106ea565b9150610762826106fb565b604082019050919050565b600060208201905081810360008301526107868161074a565b9050919050565b7f4e487b7100000000000000000000000000000000000000000000000000000000600052601260045260246000fd5b60006107c78261065d565b91506107d28361065d565b9250826107e2576107e161078d565b5b828206905092915050565b7f4e487b7100000000000000000000000000000000000000000000000000000000600052603260045260246000fd5b7f4e487b7100000000000000000000000000000000000000000000000000000000600052604160045260246000fd5b7f596f75206e65656420746f20696e76657374206d6f7265207468617420302e3060008201527f3120457468000000000000000000000000000000000000000000000000000000602082015250565b60006108a76025836106ea565b91506108b28261084b565b604082019050919050565b600060208201905081810360008301526108d68161089a565b9050919050565b6000819050919050565b6108f86108f38261065d565b6108dd565b82525050565b600081549050919050565b600081905092915050565b60008190508160005260206000209050919050565b61093281610592565b82525050565b60006109448383610929565b60208301905092915050565b60008160001c9050919050565b600073ffffffffffffffffffffffffffffffffffffffff82169050919050565b600061099061098b83610950565b61095d565b9050919050565b60006109a3825461097d565b9050919050565b6000600182019050919050565b60006109c2826108fe565b6109cc8185610909565b93506109d783610914565b8060005b83811015610a0f576109ec82610997565b6109f68882610938565b9750610a01836109aa565b9250506001810190506109db565b5085935050505092915050565b6000610a2882866108e7565b602082019150610a3882856108e7565b602082019150610a4882846109b7565b915081905094935050505056fea26469706673582212205defe21cfbe6e7db41d484e5300780ca32a419cc3210c9e124f5ee58041bc9cd64736f6c63430008180033",
  "linkReferences": {},
  "deployedLinkReferences": {}
}